:020000021000EC
:10000000E03F082095010100FB000100E100010034
:10001000090101001901010029010100000000008F
:1000200000000000000000000000000061AD0100C1
:100030003901010000000000C1AD010059010100BB
:1000400045B3010045B3010045B3010045B30100CC
:1000500045B3010045B3010045B3010045B30100BC
:1000600045B3010045B3010045B3010045B30100AC
:1000700045B3010045B3010045B3010045B301009C
:1000800045B3010045B3010045B3010045B301008C
:1000900045B3010045B3010045B3010045B301007C
:1000A00045B3010045B3010045B3010045B301006C
:1000B00045B3010045B3010045B3010045B301005C
:1000C00045B3010045B3010045B3010004D202006D
:1000D00000C007200803000008C3072060070000D5
:1000E00004207146084203D0EFF309800BF048B9B1
:1000F000EFF308800BF044B9704708B5014808F0E9
:100100006DF9FEE7B1CB020008B5024808F066F9C8
:10011000FEE700BFBCCB020008B5024808F05EF95C
:10012000FEE700BFC7CB020008B5024808F056F949
:10013000FEE700BFD2CB020008B5024808F04EF936
:10014000FEE700BFDFCB020008B5024808F046F921
:10015000FEE700BFEDCB020008B50AF0C9FD0AF0CA
:1001600051FEBDE808400AF0D7BD0B4610B5401A55
:100170005C1AA24203D9C45843F8044BF8E710BDF7
:10018000034610B500221C1AA14202D943F8042BE1
:10019000F9E710BD16480AF0A9FE15480AF0A9FEB5
:1001A000144C154DAC4201D3144D07E094E8030004
:1001B0000C3454F8042CFFF7D8FFF3E7AC4206D216
:1001C00054F8080B54F8041CFFF7DAFFF6E70CF0BC
:1001D00019FD0AF0A5FE01F0D9FD03F015FA4FF460
:1001E00016400BF0EBF9064808F0F8F8FEE700BF00
:1001F000E03F0820CC000100D8000100E000010031
:1002000001CC02000AF0BEBD0AF0CCBD144B10B503
:100210001A68014612B94FF080521A60114C1868E2
:100220002468421894421A6007D20F4CA24204D8A4
:100230000E4A0B488C18046010460D4A1B68126861
:10024000934222BF064B00201A6039B1094A136855
:1002500001331360084B1860084B196010BD00BFD4
:100260000CC3072014C30720FFBF072068CA07205C
:1002700018C307201CC3072008C3072010C307208A
:100280000CF0F8BD0CF0FEBD0CF0FCBD30B5044622
:100290008BB068460DF0AAF8224B079A2360089BA2
:1002A000214DA36062602149214B52B90A68186848
:1002B00082428ABF02F1604202F17042A2F5E82256
:1002C000626062681B68B2F5803F82BF02F17042D3
:1002D000A2F5E82262600022E2600A68934206D337
:1002E000991AC5F1005303F504230B440BE0114B9D
:1002F0001B68934208D9991AC5F1005303F5F823F6
:100300000B44002B00DDE36020460B4BE2611B68D1
:10031000A3610A4B1B686361094B1B6823610BB027
:1003200030BD00BF680A000068CA07200CC3072060
:1003300014C3072018C3072008C3072010C30720D1
:100340001CC30720034A044B1A60044A044B1A607A
:10035000704700BF0080001014C307200040082031
:1003600018C30720014B1860704700BF24C3072043
:10037000014B1860704700BF20C3072008B5024832
:100380000DF0DCFFFEE700BF0437020008B50248AD
:100390000DF0D4FFFEE700BF1E37020000207047BB
:1003A00001207047F8B5084B16461A680F461C46E0
:1003B00042B10D46EB1B9E4204DD236815F8010B8C
:1003C0009847F7E73046F8BD24C30720F8B5094B36
:1003D0000F46186816461C4658B10D46EB1B9E4248
:1003E00005DD23680020984705F8010BF6E726EAAB
:1003F000E670F8BD20C30720704700207047FFFF5C
:10040000074B1B689A68824207D05A68824204D020
:10041000DB681B1A5842584170470120704700BFE3
:100420004CC10720002070470020704730B50446BB
:100430008DB0A8B3684608F041FE9DF80030002555
:1004400003F03F0303939DF8013003A803F03F033B
:1004500004939DF802300B9503F01F0305939DF85C
:10046000043003F01F0306939DF8053003F00F03DB
:10047000013B0793BDF80630C3F30B03A3F26C7383
:1004800008939DF8033003F007030993BDF8083083
:10049000C3F30B03013B0A930CF036FE84E8210002
:1004A00000200DB030BDFFFF70B50F4D0F4E2C6812
:1004B00014F0010415D128460BF020FC88B14FF44C
:1004C0000E70FFF7DDFE302380F835323A2380F8D6
:1004D000344280F8363280F83742306028460BF0DC
:1004E00019FC306870BD00BF40C3072044C307201B
:1004F00070B50F4D0F4E2B6813F0010416D128462E
:100500000BF0FCFB90B14FF40E70FFF7B9FE012326
:1005100080F83432312380F835323A2380F836328D
:1005200080F83742306028460BF0F4FB306870BD2D
:1005300038C307203CC307202DE9F04FADF51B7DE4
:100540000F4608F0FDF9041E04DD0AF099FB204671
:100550000AF046F90DF114094C462A4D4FF0640B90
:100560000FCD0FC42B6804AA2360102100240AA811
:1005700004940AF099FA244A82462449384609F03C
:100580000DF826460AAD4FF00008D0451CD06B6927
:10059000A34215D1AA69049B16441BB1B3FBFBF31C
:1005A000B2FBF3F3297B039202932B8C00949B0004
:1005B000019359F821306A681549384608F0EEFF72
:1005C00008F101082435E0E701340A2CDAD1049B54
:1005D00064229E1BB3FBF2F30E49B6FBF3F30E4A03
:1005E0000096384608F0DAFF09F0FAFF102804D91F
:1005F00010220A49384608F0D1FF01200DF51B7D75
:10060000BDE8F08F38370200573702005C37020030
:1006100083370200AB370200A0370200CA3702005E
:1006200010B50C46ADF5007D68460AF011FE204677
:100630004FF0FF32694608F07BFF01200DF5007D89
:1006400010BDFFFF30B50C4691B02C49054608F0AF
:1006500083F8002847D00CAB04930BAB03930AAB91
:10066000029309AB019308AB009306AA07AB244998
:10067000284607F0D9FF072801D000203BE09DF86D
:100680003930069A0DA862F303038DF83930079AC2
:100690009DF8383062F304038DF83830089ABDF8BD
:1006A0003A3062F30B03ADF83A30099A9DF83630D0
:1006B00062F304038DF836300A9A9DF8353062F300
:1006C00005038DF835300B9A9DF8343062F305033D
:1006D0008DF834300C9A9DF8373062F302038DF8B0
:1006E000373008F013FD08F0ADFD064902462046FC
:1006F00008F054FF012011B030BD00BFF4370200F4
:10070000F83702000EC60200F7B50D464E49044602
:1007100008F012F9064640B107F0F8FC4FF0FF323E
:100720004A49284608F004FF8BE04949204608F072
:1007300003F960B307F00EFD46490246284608F06B
:100740002DFF07F013FD44490246284608F026FF16
:1007500007F006FD41490246284608F01FFF3046D3
:1007600007F0EEFC0446012007F0EAFC06460220F2
:1007700007F0E6FC0746032007F0E2FC0097019033
:10078000334622463649284608F008FF59E03549E5
:10079000204607F0E1FF50B120220121204608F059
:1007A00079F8204608F0CAF807F0F8FD49E02E492C
:1007B000204607F0D1FF064620B92C49204607F015
:1007C000CBFF60B32A49204607F0B4FF60B929493E
:1007D000204607F0AFFF28B92046274907F0AAFFB7
:1007E000044602E0032400E002243146204607F0DC
:1007F0002DFD224A224B002E18BF1A463CB1012C77
:1008000007D01C491A4B022C18BF0B4602E01D4BA7
:1008100000E0194B1C49284608F0C0FE11E02046B4
:1008200008F08CF8194A1A490090F323012007F0C8
:100830001BFD204608F082F816490246284608F0BB
:10084000ADFE012003B0F0BD33380200393802009C
:1008500052380200593802006E3802008338020014
:10086000A2380200D2380200D6380200DE38020078
:100870002E38020028380200224A020019380200ED
:100880001138020022380200E73802004C3702001B
:10089000003902003339020030B589B004AB0024BE
:1008A00000930D4603AB022218490394049407F009
:1008B000C9FE022827D107AB009305AA06AB04990D
:1008C000039805940694079404F02CF9024638B175
:1008D000049B0F4900932846039B08F05FFE10E03D
:1008E000059A069B002A079908BF0122002B08BF22
:1008F0000123B1FBF3F3B1FBF2F22846054908F0FE
:100900004DFE012000E0204609B030BDC249020082
:1009100041390200603902002DE9F0470E46ADF57D
:10092000856D3949054607F0A1FF38490746284635
:1009300007F0C5FF3549284607F0E1FF284607F0D4
:10094000FDFF0122014681A806F036F9044640B1B8
:10095000284607F0F3FF2E490246304608F01EFEF7
:100960004CE00DF1040A01464FF4007250460CF0C1
:10097000E6FA00940AF056FC804689466B464FF42E
:100980000072514681A806F0B1F908B9009B23BB5B
:1009900081A806F07AFBCFB10AF044FC4FF47A72DA
:1009A00000230BF0A7FE002305464FF47A72404661
:1009B00049460BF09FFE281A14BF03460123B4FBDF
:1009C000F3F322461349304608F0E8FD4FF0FF32BA
:1009D0001149304608F0ACFD10E01C44002FCDD189
:1009E0003D46009B9D42C9D233681AF805105B68EA
:1009F0004FF0FF32304698470135F2E701200DF500
:100A0000856DBDE8F08700BF8E390200C249020043
:100A100097390200AB390200393F02002DE9F04757
:100A20000023BEB00C46534905460C9307F084FFE3
:100A300020B9284607F082FF064600E04E4E3146B8
:100A400015A806F0DBFB054630B1034632464B499C
:100A5000204608F0A3FD89E032464949204608F0C7
:100A60009DFD2F460DF1780880230DA915A8CDF81E
:100A70004C80149306F006FC002861D19DF83D30AF
:100A8000002B5DD09DF83C100DF13D00CA065BBF08
:100A90000D9B0C9A44229B185BBF0C932D220135B1
:100AA000013711F0010F14BF52232D23BDF83AA0D6
:100AB00011F0020F09900D9814BF4FF0480E4FF03F
:100AC0002D0E11F0040F14BF4FF0530C4FF02D0CEE
:100AD000089011F0200FCAF34510BDF838100790A8
:100AE0004FEAEA20069001F01F000590C1F3431081
:100AF0004FEA612114BF4FF041094FF02D0901F277
:100B0000BC71CDF804C0CDF800E004900391CDF89D
:100B100008901C49204608F041FD4FF0FF321A4969
:100B2000204608F0F1FC41464FF0FF32204608F025
:100B3000EBFC4FF0FF320F49204608F0F9FC91E73B
:100B40003A46124900950C9B204608F027FD0BAA57
:100B50000CA9304606F0C5FB40B90B9B0C499A78AE
:100B60000C9B20465A43520808F018FD01203EB065
:100B7000BDE8F087393F0200C6390200C9390200DA
:100B8000ED390200083A0200353A0200393A020013
:100B9000633A020070B50C46064607F0CFFE0546E4
:100BA000304607F0CBFE06F05EFC064A064B0749CE
:100BB000002808BF13462A46204608F0EFFC012013
:100BC00070BD00BF193C0200233C0200773A0200CE
:100BD00070B50C46064607F0B1FE0546304607F0F4
:100BE000ADFE06F0E3FB064A064B0749002808BFA6
:100BF00013462A46204608F0D1FC012070BD00BFF4
:100C0000193C0200233C0200933A02007FB503AB7B
:100C1000002400930E4602AB02220F490294039473
:100C200007F010FD022814D1029C039D204629469E
:100C300006F0C2FC094B0A49224600280CBF0846B0
:100C400018462B4600900749304608F0A7FC0120C3
:100C500000E0204604B070BDC2490200233C0200FF
:100C6000193C0200A53A020030B5ADF50D7D0C46E9
:100C7000054607F063FE0A22014603A805F09CFF23
:100C800040B1284607F05AFE1F490246204608F0A8
:100C900085FC34E08DF8070002901C4942F2107385
:100CA0007E22204608F07AFC1949204608F076FC9E
:100CB000236842F210721B680DF107012046984725
:100CC00018B19DF807307E2B03D103A806F0DDF99B
:100CD00015E002AB01220DF1070103A806F0BEF8F2
:100CE00058B9029B012B08D123684FF0FF325B6893
:100CF0009DF8071020469847DAE70649D5E7012016
:100D00000DF50D7D30BD00BFBD3A0200E43A020092
:100D10001C3B02003C3B02002DE9F04FADF5417D4C
:100D2000002304AC236003930D46009403AB02221E
:100D3000414907F087FC022806D04FF0FF323F49B7
:100D4000284608F0F5FB72E0216817A806F056FA6D
:100D500010B122683A4906E0039917A806F04EFA46
:100D600028B1039A3749284608F018FC5FE04FF491
:100D700080720DEB020105A807F026FC4FF480728B
:100D800080A90AA807F020FC20AE80270FA917A889
:100D90001596169706F076FA002842D19DF8453050
:100DA000002B3ED09DF8443003F0100303F0FF0AFF
:100DB000002BEBD10DF14503039A234905A807F059
:100DC00007FE0DF1450322681F490AA807F000FE3F
:100DD00005A807F0B3FD07460AA807F0AFFD804657
:100DE00005A8DDF83C9007F0A9FD83460AA807F0A6
:100DF000A5FD534652460146CDF800A0584603F0E3
:100E000091FE124A124BCDF8009000280CBF1846F4
:100E100010461049019043463A46284608F0BEFB6A
:100E2000B3E70AA807F0E5FB05A807F0E2FB0120FD
:100E30000DF5417DBDE8F08FC2490200633B020021
:100E4000A83B0200CD3B0200ED3B0200233C020028
:100E5000193C0200F33B0200F8B50D462449064652
:100E600007F06AFD0446074618B1FFF741FB002270
:100E700008E02049304607F05FFD044660B1FFF707
:100E800013FB3A46114600F2352006F025FC4FF0E0
:100E9000FF32194B194922E01949304607F04CFD41
:100EA000044658B1FFF724FB012200F2352105F07A
:100EB00045FE4FF0FF32134B134910E01349304603
:100EC00007F03AFD044680B1FFF7EEFA012200F286
:100ED000352105F033FE0E4B0E494FF0FF3200284E
:100EE00018BF1946284608F023FB2046F8BD00BF6E
:100EF0007A3C0200843C02001C3C0200123C0200CE
:100F0000913C0200393C0200293C02009A3C02005C
:100F10005E3C0200503C020008B508464FF0FF322C
:100F2000084908F005FB07F0F1F84FF4FA6009F002
:100F300057FC4FF08043AA221A7200221A70012037
:100F400008BD00BFA63C020010B501200C4607F00A
:100F50002FFB40B100231A46194608F0E1FF4FF07D
:100F6000FF32054902E005494FF0FF32204608F004
:100F7000DFFA012010BD00BFB73C0200CD3C0200EB
:100F800038B5064C236833B91C20FFF779F90546BC
:100F900007F09CFF2560206838BD00BF30C30720E4
:100FA0002DE9F04F5F4C91B023680E4633B92C20E9
:100FB000FFF766F9054608F01DFA25602768FFF778
:100FC00073FA00240CAA0DA900F235200D9406F046
:100FD00088F948B90C9A0D9C95699378023D5C4359
:100FE0005D4364086D0800E025464F4B1A6898463B
:100FF0007AB90C20FFF744F98146FFF7C1FF90232F
:1010000089F804300023C9F80000C9F80830C8F88E
:101010000090D8F8000003F073FD81460BF024FB2C
:101020000A900BF07DF9014648460BF0C3F83F49A2
:101030000BF0CAF90BF018FB81460DA809F066FF0A
:1010400004F0B4FC68B308F077F904F099FC4FF0B1
:10105000000A0346D346D0469A450B930BD0504620
:1010600004F0F2FC804538BFD3460B9B38BF804666
:101070000AF1010AF0E708F077F9642303FB08F3AB
:101080002B4ACDF80880B3FBF2F3C3F1640300935D
:10109000CDF804B02B4622462649304608F07EFAA9
:1010A00005E02B4622462449304608F077FA234CC7
:1010B00023681BB90120FFF7E3F82060206803F0E4
:1010C000E3FC044608F0BEF8FB8C0A9A0993BB8C3B
:1010D0001B4908939DF83430019003F03F030793B8
:1010E0009DF83530009403F03F0306939DF83630A9
:1010F000304603F01F030593BDF83A30C3F30B03EA
:1011000004939DF8383003F01F0303939DF83930A2
:1011100003F00F0302934B4608F040FA012011B090
:10112000BDE8F08F34C3072028C30720000020410A
:10113000A0860100063D02003A3D02002CC30720B4
:10114000483D02002DE9F04F0D46C7B05549814694
:1011500007F019FB54498246484607F014FB5349EF
:101160008346484607F00FFB00270DF1100805AE37
:10117000044602970397C8F800703760BAF1000F71
:1011800045D0009603AB02AA4949484607F04CFAFD
:10119000012807DC28464FF0FF32464908F0C8F91D
:1011A00038467CE00DF118084FF480742246394629
:1011B00040460BF0C4FE336813B90123336003E0EB
:1011C000B3F5807F88BF3460FFF7DAFE33689DF89F
:1011D0000C209DF808100093434608F0A5FA364A03
:1011E000364B3749002818BF1346029A284608F0A4
:1011F000D5F9002433689C424ED2039A18F8043083
:1012000022443049284608F0C9F90134F2E7BBF11D
:10121000000F2CD0CDF8008003AB02AA2A49484623
:1012200007F002FA032807D028464FF0FF3227497B
:1012300008F07EF9504632E0FFF7A2FE98F8003041
:101240009DF80C209DF8081008F083FA48B1039B24
:101250001F490093D8F80020029B284608F09EF909
:101260001AE0029A1B49284608F098F914E0A8B140
:1012700002230293029BFE2B10DCFFF781FE9DF8F8
:10128000081008F071FA20B1029A1349284608F0B4
:1012900085F9029B0233ECE7012000E0204647B0CD
:1012A000BDE8F08FE14A0200B13D0200B73D020007
:1012B000C03D0200CF3D0200193C0200233C020069
:1012C000F03D0200143E0200243E0200343E0200C3
:1012D0005B3E0200753E0200923E020070B5ADF525
:1012E0000A7D05460C4607F096F90B2802DD0C2214
:1012F00022493CE0284607F021FB0122014601A8D3
:1013000005F05AFC064668BB01A805F0BEFE28465B
:1013100007F014FB1A490246049B204608F03EF9E8
:10132000236820469B6898470A2009F059FA4FF035
:10133000100383F31188BFF36F8FBFF34F8F2846DD
:1013400007F0FCFA02460F4B0068516803C390682F
:101350000D4A186043F80C2C4FF08043AA221A72F1
:101360001E7007E0284607F0E9FA024607492046C2
:1013700008F014F901200DF50A7D70BDCC3E020085
:10138000F33E0200484002400DD0ADDE3A3F02007D
:101390002DE9F041404CA4B023680646DB070D461A
:1013A0000CD420460AF0AAFC40B14FF480600BF048
:1013B00061FD3A4B186020460AF0ACFC38493046D3
:1013C00007F0E1F90746044600B38022002104A893
:1013D0000BF0B5FD00230293039303AB009304AA23
:1013E00002AB3049304607F01FF92C49029B039AA3
:1013F000096804A813B903F031FC01E003F050FCC4
:10140000294B2A49002818BF194638E02849304698
:1014100007F0B9F9074600283AD004AB304603AAD2
:101420002449039404948DF8084007F0FDF8039EC6
:10143000049B3344B3F5806F02DCDFF860800CE07E
:101440004FF480621C4920E0D8F800309DF8082055
:101450009A559DF8083001361C44039B049AF31AF0
:10146000934210DAB6F5806F0DDA2B684FF4FA620A
:101470001B6802A9284698470028E5D10F4928464D
:1014800008F08CF804E022460D49284608F086F85A
:10149000384624B0BDE8F0814CC3072048C307207C
:1014A000653F02006C3F0200533F02004F3F0200C5
:1014B0007C3F0200833F02008D3F0200B13F0200EB
:1014C000C13F020038B50D4607F03AFA0446C0B2F3
:1014D00002F0C0FA054A064B0649002818BF134619
:1014E0002246284608F05AF8012038BD193C02006F
:1014F000D23F0200D93F020030B50C46054687B006
:101500000A4908F04BF8A188238804912189628850
:101510000391E18828460291E17A0191A17A009134
:10152000034908F03BF807B030BD00BFF03F0200B0
:10153000264002002DE9F0418CB003AB0026009359
:101540000D46904602AB022238490296039607F0F8
:1015500079F8B04266DD02980BF063FAC7B20398DF
:1015600018B10DF0EDF9C4B200E00446002104A862
:1015700003F010F930B14FF0FF322D49284607F043
:10158000D7FFF3E7022318F100010093039A2346E3
:1015900018BF0121384602F0A1FB064638B94FF0CA
:1015A000FF322449284607F0C3FF01263AE0B8F18C
:1015B000000F37D04FF47A7104A803F0F3F860B34A
:1015C0009DF81030BB4228D19DF817300C2B04D168
:1015D0003A4606A92846FFF78FFFBCB916492846A8
:1015E00007F0DCFF9DF817309C420ADA04AB1919AA
:1015F0002B684FF0FF325B68097A28469847013420
:10160000F0E70E49284607F0C9FF0BE04FF0FF3224
:101610000B49284607F08CFF04E0029A0949284646
:1016200007F0BCFF30460CB0BDE8F081C2490200B3
:1016300044400200664002008E400200BB460200A9
:10164000A2400200BF4002001FB501A80C4602F0F4
:1016500023FD02F00BFA01A902462046FFF74CFFDA
:10166000012004B010BDFFFF30B58BB00AAA4FF4C3
:101670007A730C4642F8243D174906F0D5FF002541
:10168000019902A803F086F8D8B19DF80820134903
:10169000204607F083FF00259DF80F309D420ADAAF
:1016A00002AB591923684FF0FF325B68097A204674
:1016B00098470135F0E70A49204607F06FFF0125FA
:1016C000DEE72DB94FF0FF320649204607F030FF24
:1016D00001200BB030BD00BF8A3F0200E540020090
:1016E000383F0200FC40020037B50C4602F038FBE0
:1016F00005461649204607F051FF15492A4620465F
:1017000007F04CFF1149204607F048FFD5B11149B9
:10171000204607F043FF0D49204607F03FFF002514
:10172000E8B202F007FB013540B1817843780278D6
:1017300000912046084907F031FFF1E703492046B0
:1017400007F02CFF012003B030BD00BF0D410200A7
:1017500028410200424102005D4102002DE9F347A9
:101760003C4C074626688946002E62D12420FEF7AD
:1017700087FD0423054680E848008660C660202176
:1017800030460CF045FEAE68E8604FEA8608072E4A
:101790000ED81020FEF774FD8246102200210BF0B7
:1017A000CEFBEB68013643F808A008F10408EEE729
:1017B000002608236B604FF00108274B274A284971
:1017C0002846009685F82080256006F011FA254B02
:1017D000254A26492068009606F00AFA244B254A35
:1017E00025492068009606F003FA244B244A25492F
:1017F0002068009606F0FCF9234B244A244920680F
:10180000009606F0F5F9234B234A24492068CDF8C9
:10181000008006F0EDF9224B224A2049206800960C
:1018200006F0E6F90096204B204A2149206806F090
:10183000DFF92049384607F07FF818B11E493846CD
:1018400007F034F94A463946206802B0BDE8F0474F
:1018500006F0AEBA54C3072078410200B24102003C
:10186000091B0100B94102000D420200DD18010010
:101870001642020039420200691601003C42020091
:101880009B470200C514010066420200824202002A
:10189000E916010089420200675002003515010077
:1018A000CA420200EF420200F44202000F4302006B
:1018B00049160100393F02001543020038B5064CB5
:1018C000236833B95820FEF7DBFC054607F0D6FB4A
:1018D0002560206838BD00BF50C307202DE9F04FB8
:1018E0000446ADF2DC5D802288460DA800210BF095
:1018F00026FB802200212DA80BF021FB06AE002341
:1019000033600DAA00962DAB7549204606F08CFE7B
:10191000032801D00020DFE001220DA9EDA805F089
:101920004BF905460028F5D1FFF7C8FF3368802240
:1019300080F853304DA9044608A88DF81750079534
:1019400006F042FE2DAB009333680DAA6549404670
:1019500007F024FEA94607AE33464FF400726DA986
:10196000EDA805F0C3F9002840F0AF803368002BE4
:1019700000F0AB806F1C32685B49204607F00EFE1A
:10198000236820469B6898477D1E0DF5DA7B4FF053
:10199000000A6DAB3268C3EB0B039A4223680CD983
:1019A000CDF80CB05B684FF0FF321BF8011B2046EE
:1019B0009847039B1B789A44EBE79B68204698471F
:1019C00008A806F0BBFF834608A806F027FE4FF4E0
:1019D0007A7302465946204607F0B8FD20220121BD
:1019E0000DEB020006F056FF08A806F0A9FF82459D
:1019F00020D008A806F0A4FF524603463B494046C3
:101A000007F0CCFD3A49204607F0C8FD2368204680
:101A10009B68984723684FF47A721B680DF1170191
:101A2000204698470028F5D1022F07F101034CD832
:101A30001F46A0E733682DAA2E49009320464B4647
:101A400007F0ACFD236820469B68984708A806F07D
:101A500075FF824608A806F0E1FD514602464FF4A4
:101A60007A73204607F072FD234908A806F062FE4B
:101A7000D0B908A806F062FF20490246404607F0A8
:101A80008DFD1B49204607F089FD236820469B6891
:101A9000984723684FF47A721B680DF117012046AE
:101AA00098470028F5D1BFE7154908A806F0FEFFC2
:101AB0003368144999444A46F09B404607F06EFD4E
:101AC000002D3FF448AFBD1E45E7EDA805F0DDFA57
:101AD00008A806F08EFD01200DF2DC5DBDE8F08F58
:101AE0001A4302002943020040430200524302000D
:101AF000383F0200794302008F4302009243020004
:101B0000393F0200CA4302002DE9F047074686B07C
:101B100006AA002442F80C4D0E463D4906F084FD0D
:101B200020220121384606F0B5FE039B002B65D02C
:101B3000384606F070FD002860D0FFF7BFFE05466E
:101B40000DF1180808F80D4D2B6805221B68414659
:101B50002846984704460028F6D1039B384685F866
:101B6000533006F0EBFE274601464FF0FF32284681
:101B700007F0DEFC2B6828469B689847254B0DF143
:101B80001809186849F8044D04902B684FF47A72CC
:101B90001B68414628469847D0B103220DF1150134
:101BA00048460BF0B1F99DF80BA0042204A9484661
:101BB0008DF817A00BF08EF950B1336801225B68E5
:101BC00051463046013798470028DED10134DCE722
:101BD0001822B7FBF2F302FB137202B101333A464B
:101BE0000D49304607F0DAFC74B1612300932246B8
:101BF0000A4B0B49304607F0D1FC05E04FF0FF32AD
:101C00000849304607F094FC012006B0BDE8F08793
:101C10008A3F0200CE3F0200D6430200FD4302008D
:101C200039440200F244020001480CF087BB00BFB7
:101C30001E45020038B504460D4609F06DFC074B01
:101C4000B0FBF3F00223B0FBF3F2AA4204D9B3F5E0
:101C5000807F01D00233F6E7236138BD40420F0098
:101C60007FB500F235260C460122314604F066FFAE
:101C7000054648BB039002AA03A9304605F031FB94
:101C800000BB0298039A837802FB03F18269134830
:101C9000023A5A435208B2F5004F38BF0120104BA8
:101CA0004FEA510124BF03464FF48060B1FBF0F1CD
:101CB000B2FBF0F20091019321460A480CF0CCFAF5
:101CC000012008E0084B00E0084B2A46214608485E
:101CD0000CF0C2FA002004B070BD00BF5C450200E9
:101CE0005945020066450200624502005F45020058
:101CF0009445020038B5074C23684BB90820FEF71D
:101D0000BFFA0546FFF73CF9402328602B71256098
:101D1000206838BD60C3072038B5054C256825B953
:101D20000120FEF7ADFA05702060206838BD00BFC5
:101D30005CC3072038B5084C23685BB90C20FEF75C
:101D40009FFA0546FFF71CF990232B7100232860AA
:101D5000AB602560206838BD28C3072010B5044C4F
:101D600023681BB90120FEF78BFA2060206810BDA4
:101D70002CC3072010B5044C23681BB90120FEF7C3
:101D80007FFA2060206810BD58C30720AD49AE4AD5
:101D90004023F0B58B614FF0007393614FF48033B3
:101DA0008B61AA4BADF5057D1868072520F0F00082
:101DB00018601868022440F050001860186820F479
:101DC00040501860086840F040000860186820F42F
:101DD0007C201860186840F428201860186820F4E7
:101DE00070001860186840F420001860186820F02F
:101DF00040401860186840F000401860586820F0B3
:101E00003C005860586840F028005860586820F03E
:101E100003005860086840F480300860586820F477
:101E200040505860086820F480000860D96821F4A8
:101E30004031D960116841F080711160596821F416
:101E400040215960596841F480215960986880495F
:101E500001409960116841F4897141F001011160FC
:101E6000996821F470119960996821F07041996026
:101E7000116821F446411160D96821F03001D96020
:101E8000D96841F03001D960D96821F47011D96066
:101E9000136843F000731360136823F080631360CA
:101EA00006F062FE01210A2009F056F901210A20FC
:101EB00009F06AF96748012105604460FFF7BAFE3E
:101EC00007F0CAF90121152009F046F90121152072
:101ED00009F05AF96048012105604460FFF7AAFE45
:101EE000FFF74EF8642106F0BDFF10B95B480CF017
:101EF00025FA09F06DF902F027FC10B958480CF0EA
:101F00001DFA4FF4FA6006F0E8FDFFF78DFE09F0C8
:101F100003FB0AF001FA53490AF00AFB0AF082F8BF
:101F200002460B4650480CF097F908F0E9FF0528E7
:101F300004AC14D1002363604C4B1B682360FFF793
:101F400073FE4B4B4B48D96C1A6D5B6D00940CF0D3
:101F500083F9FFF769FE41F2883006F0BEFDFEF717
:101F6000A3FA4549FFF77CFE054668BB43480CF0E1
:101F700073F903F093FDFEF797FA29462A4600F21B
:101F8000352005F0A9FB3E4B3E4A00280CBF104609
:101F900018460CF0D3F9FEF787FA3749FFF760FED1
:101FA00090B939480CF0CAF903F0FAFC01463748F9
:101FB0000CF052F903F0E4FC054603F0F1FC00FBE1
:101FC00005F133480CF048F9324E334F336813F0C3
:101FD000010516D1304609F091FE90B14FF40E7014
:101FE000FEF74EF9012380F83432312380F8353280
:101FF0003A2380F8363280F837523860304609F09C
:1020000089FE26493868264DFFF72AFE1821114817
:10201000FFF710FEFFF708FE2B684BB90820FEF70C
:102020002FF90646FEF7ACFF3823306033712E607F
:10203000286802F03BFC0546B0BB1A480CF07EF95C
:1020400033E000BF00C0092020C0092000C00240CA
:10205000F0FCFCFF0000034000800840D84502006F
:1020600009460200002474492E4602004440024002
:102070000040024046460200BE460200C64602003C
:10208000CC450200C7450200034702002247020078
:102090003147020038C307203CC30720483C0200F8
:1020A00068C307204C4702000125FFF743FE02F0FA
:1020B000FDFC064618B972480CF040F93546FFF7AA
:1020C00019FE02F075FC064618B96E480CF036F998
:1020D00035466D4E33681BB90120FEF7D1F83060EC
:1020E000306802F033FCFFF739FE02F0CBFCFFF75B
:1020F00013FE02F096FCFFF73DFE02F0C8FCFFF76E
:102100000BFE002102F090FC8DB9FFF78DFDFFF76B
:10211000F1FD2D2102F034FCFFF7ECFD2D2102F042
:102120003BFCFFF7F9FDFF2102F07EFC0CE0FFF71E
:10213000E1FD0546FFF7FEFD02F0E2FC0AF0BAFA07
:10214000C1B2284602F050FC1022002120460AF0BD
:10215000F6FE00230F2221464C4802F05DFD80B9B7
:1021600020460AF05EFCC5B2284601F073FC484ADE
:10217000484B2946002818BF1346444A46480CF0ED
:102180006BF8FFF7EBFD02F07FFC054600200DF039
:1021900061FB28440CF0DAF84FF40072002120466D
:1021A0000AF0CDFE204609F053F821463B480CF0DA
:1021B00053F8FFF739FD8022002120460AF0BFFEC8
:1021C000204603F0C9FB2278FF2A04D02146344878
:1021D0000CF042F829E0FFF7CDFD02F05BFC092886
:1021E0001DD130480CF0AAF821462F480CF0BAF95E
:1021F00021462E480CF030F82D480CF09FF80023B3
:1022000003A92C4803930CF0ADF99DF80C30592B21
:1022100003D1204603F07EFB07E0274803E0274870
:102220000CF08CF826480CF089F84FF208031D6872
:102230004FF20C031C684FF210031E684FF47043FA
:102240001A684FF20403AD0A1968A40A1D480CF07D
:1022500003F82A4621461C480BF0FEFF31461B4876
:102260000BF0FAFFFFF7E0FC012005F085FF1848AE
:102270000CF064F8FFF7D8FC0DF5057DF0BD00BF4C
:10228000674702008147020064C307209A470200A3
:10229000D2450200D23F0200A04702000EC6020053
:1022A000D4470200F047020012480200174802001B
:1022B0003248020075480200794802009148020045
:1022C000BF480200F14802001D4902004A490200CD
:1022D00067490200012070470120704701207047C4
:1022E00010B5044C23681BB90120FDF7C9FF20601D
:1022F000206810BD64C307200120704738B504462C
:102300000F4B00250360636DE06DAB4205D950F8BB
:102310002500FDF7B7FF0135F5E708B1FDF7B4FF7C
:102320000025A36B206CAB4205D950F82500FDF7C2
:10233000A9FF0135F5E708B1FDF7A6FF204638BD36
:10234000A049020010B50446FFF7D8FF2046FDF76C
:1023500099FF204610BD2DE9F04104460E46C068A5
:1023600089000CF055F8A568E060AF004FF0000858
:10237000AE420DD90C20FDF783FFE368C0F8008062
:10238000C0F8048080F808800135D8510437EFE7A1
:102390006660BDE8F081FFFFF7B5044600250B46F7
:1023A0004FF480520095254906F0E8F8244B0426A6
:1023B00023606663A563E5632564022104F13400AC
:1023C000FFF7C9FF26656565A565E56528466021B7
:1023D0000CF01EF8A56DE065AE00172D0CD810208E
:1023E000FDF74EFF0746102200210AF0A8FDE36D1D
:1023F00001359F510436F0E718236365012384F803
:102400007030104E0023A4F87430A4F87630A3671F
:10241000002200230027C4E92023C4E9226708F032
:1024200001FF4FF47A7200230AF064F980197941B0
:10243000C4E92001204603B0F0BD00BFB849020046
:10244000A0490200C0D401002DE9F0410F7A1446E2
:102450004D680E688FB1082A23D1284606F0DBF8B4
:1024600000281CDD4FF0FF321349304607F04CF8CE
:102470000121284606F0CEF908E00A2A19D00D2AD3
:1024800012D02146284606F0E6FA97B13368214675
:102490003046BDE8F0415B684FF0FF321847072433
:1024A000F4E70A2A02D1F1E7BDE8F0810D2AEDD068
:1024B000E7E7BDE8F08100BFC1490200F8B5044676
:1024C000142015460F46FDF7DBFE8021064606F078
:1024D00072FAA36BE26B9A4206D3616B591803D26E
:1024E00004F13400FFF737FFE36B226C591C52F8FC
:1024F0002330E1631F605E601D72F8BD2DE9FF4768
:10250000CF6B06460D4601AC3FB94FF47A7008F028
:1025100067F901976760A76047E00B6C0DF1100841
:102520001B6893E8070084E80700002308F80D3DC6
:1025300008F04AF881460027EB6B9F4263D22B6C70
:102540004FEA870A53F827301868037C002B34D0F1
:10255000036800221B684146984770B3EB6B9F42AB
:102560002DD22B6C53F80A3093E8070084E807005B
:102570009DF8032021462846FFF766FF08F052FE2B
:102580004FF47A7200230AF0B5F8D5E922238018B7
:102590005941C5E92001029806F03DF80746029826
:1025A00006F03CF8013887420CDB94E8070086E827
:1025B0000700304604B0BDE8F0870137BCE705F1FD
:1025C0004403D1E7D5E92223134324D008F02AFE9F
:1025D0004FF47A7200230AF08DF8D5E9202399424E
:1025E00008BF904217D308F01DFE4FF47A72002303
:1025F0000AF080F8D5E92223801859410023C5E963
:1026000020010193D1E707F0DFFF8145C3D102200C
:1026100008F0E6F8BFE79DF803300A2B88D1C4E73D
:10262000F0B5054685B020480BF016FE294601A8F6
:10263000FFF764FF019C1CB91C480BF07FFE30E0E3
:10264000029E304605F0E7FF00282ADD08F0EAFD8B
:102650000746F8B1B5F8743005F150000133A5F81C
:1026600074302246314605F0A3FB114B0025186853
:10267000009023681DF805105B684FF0FF3220467C
:1026800001359847042DF4D108F0CCFDC11B094851
:102690000BF0E2FD304605F0C3FF236820469B683F
:1026A0009847012005B0F0BDC4490200393F02003F
:1026B00094490200CA49020038B5064C236833B970
:1026C0002C20FDF7DDFD054606F094FE2560206810
:1026D00038BD00BF34C3072010B50446FFF7ECFF38
:1026E00003682146BDE810405B684FF0FF32184791
:1026F00013B5002302AC04F8013DFFF7DDFF0368CA
:102700004FF0FF321B68214698479DF8070002B042
:1027100010BDFFFF2DE9F04100F150048AB0002503
:102720000646009520465B4B5B4A5C4905F060FA23
:10273000009520465A4B5B4A5B4905F059FA0095D3
:1027400020465A4B5A4A5B4905F052FA00952046FA
:10275000594B5A4A5A4905F04BFA00952046594BB5
:10276000594A5A4905F044FA00952046584B594AAF
:10277000594905F03DFA00952046584B584A5949A9
:1027800005F036FA00952046574B584A584905F04F
:102790002FFA00952046574B574A584905F028FA1A
:1027A00000952046564B574A574905F021FA0095A7
:1027B0002046564B564A574905F01AFA00952046CE
:1027C000554B564A564905F013FA00952046554B8D
:1027D000554A564905F00CFA00952046544B554A87
:1027E000554905F005FA00952046544B544A554981
:1027F00005F0FEF900952046534B544A544905F024
:10280000F7F900952046534B534A544905F0F0F927
:1028100000952046524B534A534905F0E9F900957B
:102820002046524B524A534905F0E2F90095524B6B
:10283000524A5349204605F0DBF9FFF73DFF4FF4BC
:10284000807320224FF41641054606F0B3FD804602
:1028500001272F744B48FDF78BFD4B48FDF782FD98
:102860003A4629463046FFF729FE082203A905A863
:1028700005F0AAFE05A8454906F018F92A4605A95B
:10288000204605F095FA05A805F0B3FE40460AB0CB
:10289000BDE8F081E0490200224A0200390501004A
:1028A000174A0200274A0200210601002F4A0200AF
:1028B0003D4A0200A10F0100444A0200854A02007D
:1028C000450601008A4A0200E64A02001909010091
:1028D000EA4A0200784B0200990801002C4B0200E2
:1028E000774B0200190D01007B4B0200A94B02003F
:1028F0001D0A0100AC4B0200D14B0200950B0100F8
:10290000D74B0200044C02000D0C0100074C0200E2
:1029100091CE0200690C01002C4C02004F4C0200C9
:10292000D10B0100524C0200254D0200451101005F
:10293000294D02006C4D0200590E0100744D020039
:10294000874D0200190F01008E4D02008D4E0200CE
:1029500009070100914E0200B94E0200490F010023
:10296000BF4E0200254602005D170100E94E02003D
:10297000DD4F020091130100A64F02008B3C0200C4
:10298000DD120100F1260100D926010015430200E5
:1029900037B5084C02AA002302F8013D2060856883
:1029A000012390214078A84723689DF807201A70DA
:1029B00003B030BD74C307201346074A30B4054640
:1029C000106830B144680A46A446294630BC4078B5
:1029D000604730BC704700BF74C307201346074AE6
:1029E00030B40546106830B184680A46A4462946CA
:1029F00030BC4078604730BC704700BF74C30720CC
:102A000073B50D4C0546206800238DF8073088B15A
:102A1000866801230DF1070232214078B04748B99A
:102A200020688DF80750446801230DF10702322118
:102A30004078A04702B070BD74C3072037B50023AB
:102A40008DF804308DF80530094B0446186860B1E4
:102A50008568022301AA38214078A8479DF80520FF
:102A60009DF8043043EA0223238003B030BD00BF49
:102A700074C3072037B500238DF80730074B044691
:102A8000186848B1856801230DF107023A214078A2
:102A9000A8479DF80730237003B030BD74C30720EA
:102AA000074B37B51C6844B102AA02F8010D6568EE
:102AB000012354216078A84700E0204603B030BDD0
:102AC00074C30720074B37B51C6844B102AA02F84B
:102AD000010D6568012364216078A84700E0204665
:102AE00003B030BD74C3072037B500238DF8043020
:102AF0008DF80530094B0446186860B185680223DB
:102B000001AA70214078A8479DF805209DF804305F
:102B100043EA0223238003B030BD00BF74C3072003
:102B200037B500230193074B0446186840B10423CE
:102B300085680DEB030297214078A847019B23602D
:102B400003B030BD74C30720074B37B51C6844B1D0
:102B500002AA02F8010D656801239B216078A8474D
:102B600000E0204603B030BD74C3072000222DE9E9
:102B7000F04F0546104691B002230F468DF8042011
:102B80008DF805300292ADF8062003A950540132A9
:102B9000112A4FF00003F9D14D4A8DF8203010680A
:102BA0008DF821308DF822308DF82330002800F088
:102BB0008C80EA5CCA540133112BFAD19DF80C3099
:102BC0002A2B7AD19DF80D30652B76D19DF80F40D8
:102BD0000DF10600C4F3C104FFF786FF012C04D1F8
:102BE000BDF8062042F2121305E0032C68D142F62C
:102BF000AD53BDF806209A4265D10120049EFFF72F
:102C0000A3FF012204460DF105013420FFF7D4FE95
:102C10002044C4B2012201A99420FFF7CDFE204434
:102C2000C4B2012201A99520FFF7C6FE204410F08E
:102C3000FF0408D002A8FFF773FF029B9E4233D027
:102C40006FF0050041E0103F4FEA57184FF01009B0
:102C5000C7F3820744450CBF3846082000234FF0D5
:102C6000010E09F1030C864511D80CEB03010DF19F
:102C7000200A294400229A4411F801B90AF802B046
:102C80000132042AF8D10EF1010E0433EBE74FEACA
:102C9000800A20B1524608A99620FFF78DFE013424
:102CA000A045D144D6D2C5E701220DF1050134205B
:102CB0008DF80520FFF780FE07E06FF0020004E0CA
:102CC0006FF0040001E06FF0030011B0BDE8F08F79
:102CD00074C307202DE9FF4100230E46074619461D
:102CE0008DF8073002AA99540133082BFAD1264DEA
:102CF0002868002845D025494FF0FA080C788DF84F
:102D000008404C788DF809408C788DF80A40CC78D2
:102D10008DF80B400C798DF80C404C798DF80D40F6
:102D20008C79C9798DF80E408DF80F1044685C21BC
:102D30004078A04704463846FFF7B2FE2044C4B2AC
:102D40003046FFF7BFFE204444B20DF10700FFF705
:102D500091FE9DF807302044C7B29E427CB20FD04E
:102D6000802B2B681B6904D132209847F81E44B28F
:102D700001E00120984708F1FF3313F0FF08E4D188
:102D8000204604B0BDE8F08174C307206CC307205F
:102D9000094B02881A70120A5A7042889A70120AF5
:102DA000DA7082881A71120A5A71C28803209A71E5
:102DB000120ADA71FFF78EBF6CC30720094B028835
:102DC0001A70120A5A7042889A70120ADA7082884F
:102DD0001A71120A5A71C28803209A71120ADA71A2
:102DE000FFF778BF6CC30720F8B50746067B0325BD
:102DF00006F11003467B002403EB062600F05EFB81
:102E000031463846FFF7B2FE204444B21CB1013DC2
:102E100015F0FF05F2D12046F8BD2DE9F347054630
:102E20001F2D8A46914698469DF82800BDF82C70C3
:102E3000BDF8306030D80D440128EDB203D007D37F
:102E4000FF2801D028E02846FFF7DAFD044600E01D
:102E50000024A5F14001C9B2BAF1000F0ED0BAF1B9
:102E6000200F19D16846ADF80090ADF80280ADF89A
:102E70000470ADF80660FFF7A1FF0AE06846ADF800
:102E80000090ADF80280ADF80470ADF80660FFF771
:102E90007FFF204440B201E06FF0010002B0BDE8C6
:102EA000F087FFFF32292DE9F04781468A46154613
:102EB0001F4640D9224E338823B93046FFF7BEFD66
:102EC000044600E000243388002B2FD01D480288E0
:102ED0008046991A8A4501DB298009E00AEB020144
:102EE000591A3229DDBF333B9B1A2B80A5F800A06D
:102EF0003220B2FBF0F300FB132049462A88C0B20F
:102F0000FFF76CFD2A88B8F800302044134432885B
:102F10009BB2A8F80030D31A9BB240B23B8063B991
:102F2000084A1380064A1380BDE8F0872B802046AC
:102F30003B80BDE8F0876FF00100BDE8F08700BF7F
:102F4000F8C30720FAC30720F8B50D4609880446E0
:102F50001E461046002900F0EC8123681A78262AC4
:102F600000F0E58038D80F2A76D01AD8082A00F069
:102F7000C7800CD8042A04D8002A40F0958000228B
:102F8000E9E0062A00F0D38000F2C180B8E00B2A05
:102F900062D0C0F089800D2A00F0B98000F2DF8095
:102FA000AEE0192A0DD8162A80F0D480122A03D850
:102FB000112AC0F0D480CDE0142A4DD000F29380C5
:102FC0009EE01F2A00F09C80C0F05781212AC0F0AB
:102FD000B281242A68D993E0352A00F084801FD872
:102FE0002D2A00F094800DD82A2A06D8292A5BD2EF
:102FF000272A00F08C80282A02E02B2A2CD02C2AA9
:103000007ED098E1322A06D8312A80F0A3802F2A78
:1030100040F0A58020E0332A72D0342A1CD08AE107
:10302000F72A0DD8F62A6BD23E2A03D83A2AC0F0E6
:10303000918038E13F2A63D0F52A00F0D4807AE10C
:10304000FB2A03D8F92AC0F0BB80FDE0FD2A57D93E
:10305000FE2A00F0B5806EE1A14A52788A4200F261
:103060006A81012232701B7803702268917853784C
:1030700043EA0123438022681179D37843EA01238C
:10308000838022689179537943EA0123C3802268BF
:10309000117AD37943EA012303812268917A537A22
:1030A00043EA0123438114E18D4A92788A4200F277
:1030B0004281022232701B78037022689178537823
:1030C00043EA0123438022681179D37843EA01233C
:1030D000838022689179537943EA0123C38023686E
:1030E000DB790372F5E07E4AD2788A4200F22381CE
:1030F000032232701B78037023685B784370E8E02A
:10310000774A12798A4200F21681042205E0744A55
:1031100052798A4200F20F81052232701B780370C7
:1031200022689178537843EA01234380D1E06C4AC6
:1031300092798A4200F2FF80062232701B78037077
:103140002268D37891781B04527843EA0123134311
:103150004360BEE0072232701B780370B9E0604A1A
:10316000127A8A4200F2E780082232701B780370DC
:1031700022689178537843EA0123438022681179C9
:10318000D37843EA0123838022689179537943EA13
:103190000123C3802268117AD37943EA0123038192
:1031A0002268917A537A43EA012343812268117B92
:1031B000D37A43EA0123838123685B7B837388E0AE
:1031C000474A527A8A4200F2B680092232701B784E
:1031D000037023685B78437023689B78837023684F
:1031E000DB78C37075E03E4AD27A8A4200F2A3804F
:1031F0000B2232701B78037023685B78437023685E
:103200009B7883702368DB78C37023681B79037114
:1032100023685B79437123689B7983712368DB7929
:10322000C37123681B7A037223685B7A4372236835
:103230009B7A83722368DB7AC37223681B7B0373D8
:1032400023685B7B437344E0254A927A8A4272D8B2
:103250000A2232701B7803702368D3F80130436070
:103260002368D3F8053083602368D3F80930C3603E
:103270002368D3F80D3003612BE00E3AD2B2184F19
:103280003270BA5C8A4256D81B78002203703178BB
:1032900093B2795C013201398B421ADA2168C95C38
:1032A00003445970F3E72E3AD2B20D4F3270BA5C34
:1032B0008A4240D81B7800220370317893B2795C3F
:1032C000013201398B4204DA2168C95C0344597028
:1032D000F3E7236819783F2906D8024B1BE000BFAB
:1032E00000C0072004C407200B1DDBB2012B02D84D
:1032F000124B1B6806E001F10A03DBB2012B04D874
:103300000E4B5B685BB1984709E0FE2901D0F829B4
:1033100005D141780A4B53F8213003B198473278F0
:10332000084920688B5C034423608A5C2B889B1AC5
:103330002B800020F8BD6FF00100F8BDFCC3072012
:1033400078C3072000C00720F0B510F8013F89B00E
:1033500003F03F0403F0400303F0FF0201AF0BB999
:1033600003461FE003460025EAB2944216D913F83B
:10337000012F02F0F00090284FEA121602F00F021F
:103380008CBF37363036092A07EB45008CBF373201
:10339000303207F8156042700135E5E708AB03EB02
:1033A000440409E0D0B2844204D913F8010FB854A0
:1033B0000132F7E708AB1C440023384604F81C3CF4
:1033C000884709B0F0BDFFFF3F280DD811F0DF0F8F
:1033D0000AD100F01F000144054BC9B253F8210087
:1033E00010B943F8212070476FF00100704700BF0B
:1033F00004C40720704707F0F3B9FFFFF0B50C468F
:10340000294B87B0054629481E680AF025FF012C84
:1034100001D0212C40D1304608F07EFF244909F02C
:1034200087F808F0FFFD0646B5F906000F4608F0DC
:1034300077FF4FF0605108F0C7FF4FF0814108F06F
:10344000C3FF08F0EFFDCDE90401B5F9040008F071
:1034500067FF4FF0605108F0B7FF4FF0814108F06F
:10346000B3FF08F0DFFDCDE90201B5F9020008F075
:1034700057FF4FF0605108F0A7FF4FF0814108F06F
:10348000A3FF08F0CFFD3246CDE900013B460948D5
:103490000AF0E2FE07B0F0BD2146074807B0BDE8DC
:1034A000F0400AF0D9BE00BF04C50720FF4F02005C
:1034B0000000FA460F5002002950020008B50648E5
:1034C000064B4360064B8360064B03612823437021
:1034D000FFF75EFA002008BD34C60720233601003E
:1034E0004D360100F7330100F0B58FB0402107A839
:1034F00001F086F907A801F0ABF900233B480693D9
:10350000ADF81430ADF81630FFF76EFC10B1384846
:103510000AF014FF07A801F0A4F90028FAD107A8BF
:1035200001F09FF90028FAD0324A20210120FFF74C
:103530004BFF10B130480AF001FF002302930193C2
:1035400000930A2220210120FFF767FC18B1012116
:103550002A480AF081FE2A4D00242E4607A801F0D1
:1035600080F918B9BDF81430002BF7D0A7B2C7F511
:10357000967105AB0DF1160289B22819FFF792FC7E
:10358000BDF8163006963B44ADF8163000238DF892
:1035900013300DF1130309AA0DF1160106A8FFF768
:1035A000D3FC9DF8133004460B2B03D1154909A811
:1035B000FFF7CAFEBDF8142024B9BDF8163092B941
:1035C000002BE6D10024002AC8D0BDF81600002345
:1035D000DCB2844203F10103C0D2069A511C069169
:1035E00012783255F4E7122BD3DCEEE78850020054
:1035F0003A500200FD3301004B5002006B500200B4
:1036000008C50720F533010008B59020FCF738FE07
:1036100004460321FEF7C0FE204604F0A1FFFFF799
:1036200063FFF7B504460D4616461F46FDF7A8FC96
:103630006100009733462A4601F0FE0106F085F846
:1036400080F00100404240B203B0F0BDF7B504463F
:103650000D4616461F46FDF793FC61000097334662
:103660002A4601F0FE0106F05FF880F001004042BA
:1036700040B203B0F0BD10B54FF6FF74242303FB36
:103680000101884209D043782BB1038C1344A34233
:1036900028BF234603842430F3E710BD37B5002349
:1036A00002A840F8043D0C4B04215B6898470B4B83
:1036B000019A1C680546141B1A600421224608481A
:1036C000FFF7D9FF224602210648FFF7D4FF281C46
:1036D00018BF012003B030BD48C6072018C7072017
:1036E0005CC6072035C7072008B50B4B197803784F
:1036F0008B420A4B0BBF1A889A880132013214BFE1
:103700009A801A80064B8170DB6820219847003030
:1037100018BF012008BD00BF19C00720EDC6072053
:1037200048C607200A4B02781B789A42094B0BBF08
:10373000DA881A89013201320CBFDA801A810379E2
:10374000C3F3C202073262F3C5030371FFF7CCBFB4
:1037500019C00720EDC6072010B50749002311F84E
:1037600023409A00844202D10348104410BD013323
:10377000042BF4D1002010BD07C7072070B1C37817
:103780000133DBB2FF2BC37008D105480023C118F9
:10379000CA7804335208102BCA70F8D1704700BFA2
:1037A00007C70720242202FB01010346024630B569
:1037B000914206D01446243212F8235C002DF7D132
:1037C0000FE00446002599420BD01A79C2F3C200DB
:1037D0001A8C42EA0042AA4284BF1C461546243392
:1037E000F1E7204630BDFFFF38B50546C90001F1BD
:1037F0000804FFF753FF1C4B2A781B789A4204D128
:1038000002211A48FFF7CEFF0CE004211848FFF709
:10381000C9FFEB7833B990F82330042443F08003D8
:1038200080F82330002380F8203080F821300246D1
:103830002B4690F8231080F8224021F07F01C4F33A
:1038400006240C4380F8234005F1200153F8044B73
:103850008B4242F8044BF9D1064A0379127862F39D
:10386000C503037138BD00BF19C0072035C7072045
:103870005CC6072018C0072008B5FFF76DFF034698
:10388000D8B9FFF769FF0346B8B90D4AD378D179A3
:10389000D07A8B4296BF1946131D1346814294BFBE
:1038A0000846084BD17B084A814238BF1346074976
:1038B00000221A60CA7A0132CA72184608BD00BFD7
:1038C00007C707200FC7072013C70720EDC607202B
:1038D0002DE9F84F05460C464FF0240909FB021963
:1038E000DFF868A1DFF868B14E1C4FF000084C45C6
:1038F00000F09A8094F823301A0624D5B5B12A78BE
:1039000061788A4205D16F7816F8010C874200F081
:103910008D80E87850B16878884207D116F8011C8C
:10392000914203D1A979A27991427FD094F82220C3
:10393000218C03F07F0342EA0323994271DB204686
:10394000FFF7D2FE72E06278002A6AD06DB329795F
:1039500001F0C001C02917D116F8010C697888421E
:1039600002D12878904261D0E778A87887420CD1BC
:1039700091420AD116F8010C2978884205D1A07924
:10398000A979884201D151E079B1A878E1788842DB
:103990000BD16978914208D116F8010C2978884238
:1039A00003D1A079A979884246D094F82210208CBE
:1039B00003F07F0341EA0323984232DB237984F842
:1039C0002080C3F3C201CFB284F821801FB120460A
:1039D000FFF7A8FE25E003F0C003C02B19D016F8AE
:1039E000010C9AF80030984213D1E3789A4210D033
:1039F0007BB16379032262F307136371E1702046A0
:103A0000FFF790FE23799BF8002062F3C503237132
:103A100000E001276078FFF79FFE08B1C0F8008042
:103A200027B92434243662E7BDE8F88F2422002128
:103A3000204609F084FAF4E7237984F820806FF3B4
:103A4000C50384F821802371EBE700BF19C007206C
:103A500018C00720431EDBB2FD2B9DBF024B187020
:103A600001200020704700BF19C00720014B1878C3
:103A7000704700BF19C0072007289CBF014B187072
:103A8000704700BF18C007202DE9F7430446914650
:103A90001E469DF828500F46002966D0364B93F8F5
:103AA0000080414563D00F2E61D8002861D02022CC
:103AB000002109F044FAFF2F237914BF09F0030213
:103AC000002262F38713032262F302032B4A67701A
:103AD000127884F8008062F3C503294A23711378B1
:103AE00084F802800133DBB21370A3710BAB019336
:103AF00015B94FF001081BE004F10809019AE079BB
:103B00001346526853F8081B00EB02085FFA88F866
:103B1000013DB8F1180F0193EDB207D8484409F000
:103B2000E8F984F80780002DE8D1E2E74FF00008BB
:103B3000DFF850900123384689F80030FFF70CFE7B
:103B40000546FFF71BFE002389F80030637925B98D
:103B500066F307136371E57005E0AA7862F3071353
:103B600063716B78E370404603E0084601E0002093
:103B7000FFE703B0BDE8F08319C0072018C0072095
:103B8000ECC60720F9C60720124B012270B51A7047
:103B900004461E4608B9002518E0FFF7A5FD0546B6
:103BA0000028F8D0237903F0C003402B06D0C02BA7
:103BB0000AD1E37853B162789A4207D061792046FE
:103BC0000909FFF711FE01E0802BF7D000233370C5
:103BD000284670BDF9C6072082B02DE9F043914612
:103BE000421ED2B28DB0FD2A05460E4615939DF8B1
:103BF000688001D9002057E0002BFBD0179F002FD1
:103C0000F8D0199B002BF5D0189B002BF2D0169BF7
:103C1000002BEFD048220021264809F090F990228D
:103C20000021254809F08BF910220021234809F0D2
:103C300086F9234B00241C605C609C60214B1C6057
:103C40005C609C60204B1D70204B214D1E7015AE9A
:103C50000FCE0FC53368182221461E482B6009F08D
:103C60006EF9494617221B480AF0B0FE214620464D
:103C7000B8470028BED0B8F1000F02D1FFF70EFD03
:103C800012E006230293144B224601930123009372
:103C9000FF2104A8FFF7F8FE0028ABD004A8FFF727
:103CA00073FF0028A6D0E9E70DB0BDE8F04302B0ED
:103CB000704700BF35C707205CC6072007C707202D
:103CC000FBC60720EDC6072019C00720FAC607204B
:103CD00048C607201CC7072060BF020030B5182B5C
:103CE0008DB016D8B2FA82F41D1C18BF01256409E4
:103CF000AC420ED00293019200950A469DF84030E6
:103D0000014604A8FFF7C0FE18B104A8FFF73CFF66
:103D100000E000200DB030BD13B5537914781B09B5
:103D2000009302460B4620460321FFF7D7FF02B05F
:103D300010BDFFFF00231A4630B5084C14F823507D
:103D4000990035B1904202D10448084430BD013297
:103D5000D2B20133042BF1D1002030BD07C70720B8
:103D600000231846044A12F8231009B10130C0B2EA
:103D70000133042BF7D1704707C707202DE9F04125
:103D800088B020220021684609F0D9F8A14B1B78A1
:103D900003F0FF04002B40F039819F4F20213B6945
:103DA00068469847002800F084809C4D6B8801335A
:103DB0006B80FFF7D5FF9DF80420A87202F007037F
:103DC000032B04D0964A137843F0010309E0954B86
:103DD0001D789DF80230AB4205D1914A137843F02B
:103DE00002031370E4E0C2F3C2029DF800E09DF804
:103DF00006008D49D6B204EB440313F801C0F44524
:103E00000BD10B4493F801C0844506D19978012465
:103E10008E1B18BF01269A7018E00134042CEAD1D9
:103E200082490B689A70804A587002F109008342F7
:103E300083F800E040F0C9800A609DF800009DF81A
:103E40000230834240F0C480002426469DF80200E0
:103E5000FFF712FD9DF8022002709DF802204270CB
:103E600000228270FFF78AFC04B116B39DF800307F
:103E7000AB4200F09C809DF80160FF2E1BD13B6897
:103E800020216846984720B9654A137843F0040317
:103E900013709DF8053003F00F02511C61F303030A
:103EA0008DF80530C3F303139A4202DA6846FFF730
:103EB0001BFC00247CE0B5422BD164B99DF807308F
:103EC0004BB13B6820216846984720B9544A137883
:103ED00043F0040313709DF8043003F0C003402B3B
:103EE00012D19DF807306A4613B91821504808E0EE
:103EF0000C214A48FFF710FF002858D100216A46DC
:103F00000846FFF709FF52E09DF80330002B4ED121
:103F1000F4E7484B1B78002BCBD09DF8054004F00C
:103F20000F074FEA14184745C3DA013767F3030454
:103F30003046FFF711FC8DF805409DF80340A5427F
:103F400021D19DF8041001F0C001402906D0A1F153
:103F500080035A425A41144610B90CE0012260B164
:103F6000C029437805D19E4203D0003318BF0123F6
:103F700004E0002302E0C0290ED10346134303F0FE
:103F8000010420B908E094B908B941460CE043782F
:103F90008DF80330857802E000258DF803506846DF
:103FA000FFF7A2FB1CB129466846FFF71DFC6C46D3
:103FB000FFF774FB204604221F49FFF789FC022209
:103FC0001E492046FFF784FC20E003330B6034E7F2
:103FD00085423FF439AFFFF74FFC0446FFF7CEFBB5
:103FE00023783BB19DF80530A27803F00F0393428C
:103FF0003FF72AAF9DF8003023709DF802306370C0
:104000009DF80530C3F30303A3701DE708B0BDE8B6
:10401000F08100BFF9C6072048C60720EDC607207B
:1040200034C7072019C00720FBC6072014C007208B
:104030001CC70720FAC607205CC6072035C7072023
:1040400000231846094AD118497809B10130C0B295
:104050002433902BF7D1064B5A780AB10130C0B205
:1040600093F825300BB10130C0B270475CC6072011
:1040700035C7072008B5FFF76FFB064B28B18278DC
:10408000187802FB0000C00008BD187818235843B8
:1040900008BD00BF18C0072003490B6803604B68C8
:1040A00043608B6883607047EDC6072070B53E4C57
:1040B0004FF48035E5613D4CA0602046C5683B4C1F
:1040C000ED06FBD4A0680D46C0B20BB923465FE0F5
:1040D0002346002A63D0072A0E782DDD9E604E7895
:1040E000083A9E608E789E60CE789E600E799E60C3
:1040F0004E799E608E799E6001F10806C9799960BB
:1041000099694907FCD5A1682970A1686970A168FF
:10411000A970A168E970D968C906FCD4A1680835FE
:1041200005F8041CA16805F8031CA16805F8021C29
:10413000A16805F8011C1AE0032A1ADD9E604E787A
:10414000043A9E608E789E600E1DC9789960D96889
:10415000C906FCD4A168043505F8041CA16805F85B
:10416000031CA16805F8021CA16805F8011C314672
:10417000AFE701319E60013ADE68F606FCD4A6681E
:10418000013505F8016CA4E7E668F606FCD4A668DC
:104190006E1AB24203DD15F8016B9E60F4E7024B24
:1041A0004FF480329A6170BD00C009200080084041
:1041B00007B5002302A901F8013D01231A4600F0CA
:1041C0001F00FFF773FF9DF8070003B05DF804FBC5
:1041D00013B502AC04F8011D00F01F0000230122FA
:1041E000214640F02000FFF761FF02B010BD08B586
:1041F0001720FFF7DDFFC0F3001008BD7021072076
:10420000FFF7E6BF0A4600230146A020FFF74EBF96
:1042100008B50020FFF7CCFFBDE8084000F0FE0124
:104220000020FFF7D5BFFFFF024B4FF08072DA612D
:10423000704700BF20C0092008B50020FFF7B8FF75
:1042400040F00101C9B20020FFF7C2FF024B4FF05E
:1042500080729A6108BD00BF20C00920202107207C
:10426000FFF7B6BF00231A461946E120FFF71EBF2D
:1042700037B504460D46FFF7F5FF20462946FFF700
:10428000C1FF0D4B4FF080721C469A610022ADF8C1
:104290000620BDF8063001339BB2ADF8063033B9C5
:1042A0004FF08073E361FFF7DDFF03B030BDFFF730
:1042B0009EFF0028EDD0F3E720C0092008B51720A5
:1042C000FFF776FF00F0010080F0010008BD4021FB
:1042D0000720FFF77DBF08B50A460123014661208C
:1042E000FFF7E4FEC0F3420008BD00231A4619465A
:1042F000E220FFF7DBBE70B5064600200D461446EF
:10430000FFF756FF16B100F0BF0002E040F040009A
:10431000C0B215B100F0DF0101E040F0200114B19E
:1043200001F0EF0101E041F010010020BDE8704014
:10433000FFF74EBF10B504460020FFF739FF14B950
:1043400000F0F7010DE0012C04D100F0FB0141F079
:10435000080106E0022C14BF40F0080140F00C01F7
:10436000C9B20020BDE81040FFF732BF08B50020F9
:10437000FFF71EFFBDE8084040F00201C9B200206F
:10438000FFF726BF08B50020FFF712FFBDE8084081
:1043900000F0FD010020FFF71BBF40F6DD1398423F
:1043A00006D840F66213B0F5166F38BF184600E025
:1043B0001846A0F51661C9B20520FFF709BF10B570
:1043C00004460620FFF7F4FEFA2C00F0D70102D1D4
:1043D00041F0200104E0B4F5FA6F08BF41F0080194
:1043E0000620BDE81040FFF7F3BE10B504460620D6
:1043F000FFF7DEFE032C28BF032420F0060040EA6E
:104400004401C9B20620BDE81040FFF7E1BEF9281B
:104410004FF0FA0305D9B0F57A6F88BF4FF47A6090
:1044200000E01846B0FBF3F00F2900F1FF30C0B2F6
:1044300028BF0F2141EA0011C9B20420FFF7C8BE0E
:104440001130C0B2162804D8202928BF2021FFF738
:10445000BFBE7047032804D0042814BF03210221E3
:1044600000E001210320FFF7B3BE0A460023014606
:104470003020FFF71BBE0A46002301462A20FFF723
:1044800015BEFFFF73B50E4615460446FFF72DFF18
:10449000FFF7E8FE2B4B4FF08072DA61FFF772FFF7
:1044A000002211460120FFF726FFFFF7A7FE02209A
:1044B000FFF740FF3046FFF770FF2846FFF77FFF0A
:1044C0000320FFF792FF03210220FFF781FE002166
:1044D0000120FFF77DFE03214FF4FA70FFF797FFED
:1044E00021460020FFF7ACFF00211220FFF770FEED
:1044F00000211320FFF76CFE00211420FFF768FE57
:1045000000211520FFF764FE00211620FFF760FE52
:104510000D4B18681B79009005208DF80430FFF7CB
:1045200099FF68460521FFF7A0FF05216846FFF7C0
:10453000A2FFFFF71BFF4FF4FA6004F0B9FA02B0D4
:1045400070BD00BF20C0092067BF020070B5174EC4
:10455000326822B92021032005F0C8FC3060144DD8
:104560002A6822B92021012005F0C0FC2860114CE6
:10457000216821B90322012005F0B8FC20604FF426
:10458000FA6240F6C3112020FFF77CFFFFF754FECC
:104590001620094A012104F04DFC306828B1286832
:1045A00018B12068003018BF012070BD84C70720F3
:1045B00080C7072088C707206546010070B50379CA
:1045C000014603F0C003C02B0CBF0E4B0E4B88B04E
:1045D0001D68002306461A46284605F0A1FC04463D
:1045E00060B9034602466946284605F09FFD23460A
:1045F00022463146284605F093FC0446204608B082
:1046000070BD00BF80C7072084C7072038B50446A7
:104610000D46FFF72BFA237883420AD0E37843B99B
:1046200009F0BCFEBD2300F0030000FB033004F0E2
:104630003FFAFFF7F9FDFFF7EBFDA9B22046FFF7C0
:1046400017FEFFF70BFEFFF7F7FD06F07BFA0228D7
:1046500004D1034B0021186805F036FD012038BD58
:1046600088C7072007B5002302A941F8043D084B7D
:10467000186805F029FD019B3BB1064B4FF08052B5
:104680001A60BFF34F8FBFF36F8F03B05DF804FB69
:1046900088C7072004ED00E038B504460D46FFF753
:1046A0000DFE48B1A9B22046FFF715FEFFF706FE42
:1046B00008B9FFF70CFE012038BD2DE9704305460F
:1046C0000E46144606F03EFA022807D12246002381
:1046D0003146284605F02AFDC4B21DE006F0A2FDD1
:1046E0004FF47A72002308F005F810EB040841F14A
:1046F000000900231A463146284605F017FDC4B2CA
:1047000054B906F08FFD4FF47A72002307F0F2FFE0
:10471000894508BF8045ECD22046BDE87083042956
:1047200038B5054603D1041C18BF012400E000245D
:1047300006F078FD2CB14FF47A72002307F0DAFF0F
:104740002860204638BDFFFF00B50C4B8DB00993A3
:104750000B4B0C4A0B930C4B0A930CAB43F8102DEC
:10476000002204920FCB8DE80F00084B084A01216C
:104770006A20FFF731FA0DB05DF804FB4D450100EA
:10478000994601001F4701000D460100BD4501008B
:104790006CBF0200024B0A4601461868FFF78DBF46
:1047A00084C70720024B0A4601461868FFF785BFF9
:1047B00080C7072008B506F0C5F90F4B02285B69D2
:1047C00013D15A020DD5FFF73BFC00280B484FF0E0
:1047D000000314BF01224FF0FF321946006805F0B4
:1047E000A5FCBDE80840FFF7C9BA5B02F9D5FFF7A1
:1047F00027FC0028F5D108BD00C0092088C7072084
:10480000F0B5864687B0114F4C1101F01F0501AE7F
:10481000457004700FCF0FC670463B6803213360AC
:1048200006AB03EB840353F8143C6D00CEF8043060
:10483000E30003F1804303F530331A6801FA05F50C
:1048400022EA05051D6007B0F0BD00BF74BF02007D
:10485000416840780A680123834022EA03030B6021
:104860007047436841785A6901238B40134214BF53
:1048700001200020704713460A460179006804F0C1
:1048800068BF1FB5002204AB047923F8042D02226F
:10489000009200680A46214604F046FF9DF80C008D
:1048A0009DF80D3043EA002004B010BD10B5044659
:1048B00019222A21FFF7DFFF0D222179206804F059
:1048C00037FFA0F12A035842584110BD044A13880B
:1048D0001F2B9FBF581C1080024A42F823107047BC
:1048E00090C7072094C70720154AF0B513881646CD
:1048F000012B21D9134A00201546013B984206DAC4
:10490000516814680130091B42F8041BF6E70021C6
:104910000C466A684FF0010E02EB52008AB29342D5
:1049200008DD55F822700131B8423CBF0EFA02F2A0
:104930001443F3E7044B1C6000233380F0BD00BF39
:1049400090C7072094C707208CC7072008B501210E
:10495000022006F001FC084B01209A6A22F00702AF
:104960009A629A6A42F006029A62044AD36843F055
:104970003003D36008BD00BF0080004000C002408B
:1049800008B5044B417101F07F015A5C0321FFF728
:1049900072FF08BD88BF020008B5044B817101F0A9
:1049A0007F015A5C0221FFF766FF08BD88BF020045
:1049B00038B504460179006804F0D6FE054688B192
:1049C000002206212046FFF756FF0022072120463D
:1049D000FFF751FF2E212046FFF7D2FF2E21204660
:1049E000FFF7DAFF284638BD642370B5B1FBF3F456
:1049F00004FB1311CCB20A21B4FBF1F501FB154104
:104A00003031C9B20646FFF7C7FF092C88BF05F150
:104A100030013046BDE8704094BF2021C9B2FFF795
:104A2000AFBF01207047FFFF38B50D46044606F0C2
:104A3000A9F905F00F032370114B15F0010F4FF08A
:104A4000010214BFDA619A61227812F0020F4FF06E
:104A5000020214BFDA619A61227812F0040F4FF05B
:104A6000100214BFDA619A61227812F0080F4FF435
:104A7000807214BFDA619A61BDE8384006F092B9DD
:104A800020C0092001207047022004F0A7B80120AF
:104A90007047FFFF044B5B69180B00F00C00C3F379
:104AA00041231843704700BF20C0092010B50446B9
:104AB00081220121FFF7DFFE01222179206804F025
:104AC00037FE10F0600F14BF0120002010BD38B574
:104AD00000210446FFF7D5FE812205B201212046C0
:104AE000FFF7C9FE102095FBF0F007F019FC4FF01E
:104AF000765107F069FCA16807F05EFB38BDFFFF47
:104B000008B5FFF7E4FF054907F05EFC044907F02C
:104B10000FFD4FF0844107F04FFB08BD000010412E
:104B20000000A0402DE9F04FADF2546D0C469046C8
:104B30000146012282A8994602F03EF8002867D17A
:104B400021460A220DF22C4002F036F8044620B12C
:104B500082A802F09AFA20465AE06D4606460746B9
:104B60002860019006F05EFB4FF47A72002307F094
:104B7000C1FD2B4683464FF4007202A982A802F0C1
:104B8000B5F88246E0B92A68D2B106F04BFB4FF483
:104B90007A72002307F0AEFDB0EB0B00074406F07D
:104BA00041FB4FF47A72002307F0A4FD01AB83466A
:104BB0002A6802A90DF22C4002F050F98246B0B1E9
:104BC000B8F1000F01D0C8F80070B9F1000F01D0A2
:104BD000C9F80060DDF8783603B11C6082A802F0E5
:104BE00054FA0DF22C4002F050FA504610E00199B0
:104BF0002A689142E4D106F015FB00234FF47A7243
:104C000007F078FD2B68B0EB0B0006441C44A9E7C5
:104C10000DF2546DBDE8F08FF0B5ADF50B7D0E468D
:104C2000174601461D460122002301A8009301F00A
:104C3000C3FF044670B91DB1294601A802F037FA36
:104C40006B463A46314601A802F050F8044601A8E6
:104C500002F01BFA20460DF50B7DF0BDF0B5ADF569
:104C60000B7D0E46174601461D460A22002301A869
:104C7000009301F0A1FF044670B91DB1294601A8B7
:104C800002F015FA6B463A46314601A802F0E6F802
:104C9000044601A802F0F9F920460DF50B7DF0BDA0
:104CA000F0B5ADF50B7D0E46174601461D461222A6
:104CB000002301A8009301F07FFF044680B90DB1E5
:104CC000294600E0049901A802F0F1F96B463A4642
:104CD000314601A802F0C2F8044601A802F0D5F955
:104CE00020460DF50B7DF0BD7F2810B516D931B1EA
:104CF000FF2812D80A4B803833F8100010BD084A3C
:104D000032F811408BB2844203D001318029F7D1AF
:104D10000B4603F18000C0B210BD002010BD00BFE3
:104D200008C002000649002331F8132032B1824244
:104D300001D00133F8E7034A32F81300704700BF8F
:104D400008C10200E8C2020010B501200C4605F0BF
:104D50006BF92060003018BF012010BD01207047A2
:104D600010B5044605F0EEFE02280AD100231946CC
:104D70004FF0FF32204605F0D9F9431E5842584102
:104D800010BD012010BD10B5044605F0DBFE022861
:104D900007D100232046BDE810401A46194605F009
:104DA000BFB810BD10B5044604F0C6FA24B1012CFA
:104DB00006D100F081F901E000F002FD044600E0B8
:104DC000042404F0D1FA204610BD28B1012801D0F6
:104DD0000420704700F028BA7047F8B507460C4623
:104DE00015461E4604F0A8FA3FB1012F0CD13246F9
:104DF0002946204600F020FA04E0324629462046A3
:104E000000F02AFD044600E0042404F0ADFA204638
:104E1000F8BDF8B507460C4615461E4604F08CFA58
:104E20003FB1012F0CD132462946204600F050FAFE
:104E300004E032462946204600F030FD044600E0FA
:104E4000042404F091FA2046F8BD70B506460C46DD
:104E5000154604F071FA36B1012E0AD129462046D2
:104E600000F090FA03E02946204600F037FD0446A2
:104E700000E0042404F078FA204670BD08B506F07E
:104E8000D1F94FF47A72002307F034FC08BDFFFF1C
:104E900010B5044606F040FB074BB0FBF3F00223CD
:104EA000B0FBF3F2944202D3044A136110BDB3F590
:104EB000807FF9D00233F3E740420F000000034047
:104EC000044B9860DA68D206FCD4024B9868C0B2F2
:104ED000704700BF0000034070B5FFF7CFFF00F53B
:104EE000FA74FF20FFF7ECFF0025FF20FFF7E8FF33
:104EF000FF28064605D0FFF7C1FFA94208BFA04220
:104F0000F3D3304670BDFFFF38B5064C4FF0007547
:104F1000E561FFF7E1FF044AA561137843F001035F
:104F2000137038BD20C009201AC007202DE9704336
:104F300006460D46FFF7A2FF643080464FF0000999
:104F4000FF20FFF7BDFFFF2808D1FFF797FF494576
:104F500008BF4045F4D30020BDE87083FE28FAD195
:104F6000102D06D900224FF40071304604F082F96A
:104F700019E0341D0435FF20FFF7A2FF04F8040CEC
:104F8000FF20FFF79DFF04F8030CFF20FFF798FFB9
:104F900004F8020CFF20FFF793FF043404F8050C1B
:104FA0002B1BDE42E7D1FF20FFF78AFFFF20FFF730
:104FB00087FF0120BDE8708370B506460D46FFF7F8
:104FC0008BFFFF28044619D12846FFF779FFFD2DF6
:104FD00016D022464FF40071304604F04BF92046BB
:104FE000FFF76EFF2046FFF76BFF2046FFF768FFD5
:104FF00000F01F00431F5842584170BD002070BD93
:10500000012070BD020638B504460D4607D50021C3
:105010007720FFF7F7FF012838D804F07F041C4BF6
:105020004FF000729A61DA61FFF756FFFF280146E0
:1050300028D12046FFF744FF280EFFF741FFC5F3B4
:105040000740FFF73DFFC5F30720FFF739FFE8B240
:10505000FFF736FF402C17D0482C14BF01208720C3
:10506000FFF72EFF4C2C02D10846FFF729FF0A213B
:10507000FF20FFF725FF030608D5013911F0FF01D6
:10508000F6D138BDFF2038BD9520EEE738BD00BF12
:1050900020C00920064A074913784969DBB2490153
:1050A00054BF03F0FD0343F003031370704700BFC8
:1050B0001AC0072020C009202DE9F743FFF7EAFFB7
:1050C000564B1A781E4612F0020F01D01878A1E054
:1050D0000120FFF7DDFE0A24FF20013CFFF7F0FE70
:1050E00014F0FF04F8D14E4F4FF00073FB612146DE
:1050F0004020FFF787FF012802D04FF0000875E03D
:10510000FFF7BCFE4FF4D57100F57A754820FFF724
:1051100079FF012841D10DF10408FF20FFF7D0FEEF
:1051200008F804000134042CF7D19DF80630012B57
:10513000E3D19DF80730AA2BDFD12C460025FFF7DD
:105140009DFEA94208BFA04206D3FFF797FEA942E1
:1051500008BFA042D1D207E04FF08041E920FFF71D
:1051600051FF0028EBD1F0E700217A20FFF74AFF3A
:105170000028C2D10146FF20FFF7A2FE08F8010077
:1051800001310429F7D19DF8043013F0400F14BF0A
:105190004FF00C084FF0040828E02146E920FFF703
:1051A00031FF02282C4635BF4FF002084FF00108AE
:1051B0004FF0E9094FF041090025FFF75FFEA942D2
:1051C00008BFA0420BD3FFF759FEA94208BFA04277
:1051D0000CD34FF400715020FFF714FF06E00021BC
:1051E0004846FFF70FFF0028E7D1ECE70D4B83F8A7
:1051F00000804FF00073BB61B8F1000F07D0337827
:10520000182003F0FE033370FFF742FE01E0FFF7C2
:105210007BFE3078C0B203B0BDE8F0831AC007202F
:1052200020C0092014C8072008B5FFF733FF014B41
:10523000187808BD1AC0072070B5144606460846FF
:10524000FFF728FF002C39D01E4B1B78DB0737D423
:105250001D4B4FF00072DA611C4A1D46127812F0A5
:10526000080F08BF4002012C01460CD15120FFF766
:10527000C9FEE0B94FF400713046FFF757FEB0FAAF
:1052800080F4640913E05220FFF7BCFE78B94FF4B4
:1052900000713046FFF74AFE28B1013C14F0FF04CC
:1052A00006F50076F3D100214C20FFF7ABFE4FF05E
:1052B0000073201CAB6118BF012070BD042070BDBD
:1052C000032070BD1AC0072020C0092014C8072081
:1052D000F8B5144606460F46FFF7DCFE002C44D016
:1052E000254B1A78D20742D41B785B0741D4234B55
:1052F0004FF00072DA61224A1D46127812F0080F50
:1053000008BF7F02012C0CD139465820FFF77AFEE6
:1053100018BBFE213046FFF74FFEB0FA80F4640957
:105320001CE012F0060F03D02146D720FFF76AFEDB
:1053300039465920FFF766FE80B9FC213046FFF759
:105340003BFE28B1013C14F0FF0406F50076F4D1D1
:10535000FD210020FFF730FE00B901244FF000735B
:10536000201CAB6118BF0120F8BD0420F8BD03204C
:10537000F8BD0220F8BD00BF1AC0072020C00920D8
:1053800014C807207FB50D46FFF784FE05281AD103
:105390002B78012B00F0048103D3022B0BD00420C7
:1053A00001E1824B586910F0806440F0F980FFF70A
:1053B000ABFD2046F7E07D4B5B6983F08063C3F370
:1053C00080636B70ECE07A4B1B78DB0700F1EA80BE
:1053D0000E2800F2DF80DFE800F008124F53DDDD19
:1053E000DDDDDDDDAAAFB2BBCB00704B4FF000724C
:1053F000DA61FFF771FDFF3818BF0120CBE0002113
:105400004920FFF7FFFD044608B10120C3E0102149
:105410006846FFF78BFD0028F7D09DF800309DF817
:1054200008109B09012B9DF8093006D1013303EBCD
:10543000012189B2890229606BE09DF807209DF85F
:105440000500920002EB91119DF8062001319202B5
:1054500002F4406211449DF80A2000F00F0000EBB6
:10546000D2105A00023002F006028318DBB289B271
:10547000093B01FA03F34BE04FF400732B8059E032
:105480004C4E337803F0040303F0FF01F3B1002125
:10549000CD20FFF7B7FD0028B7D1FF20FFF710FDA3
:1054A00010216846FFF742FD0028AED03021FF20D2
:1054B000FFF706FD481E10F0FF01F8D19DF80A30F5
:1054C00008461A09102393402B6064E04920FFF737
:1054D00099FD0446002898D110216846FFF726FD63
:1054E000002892D036789DF80A2006F0020606F0D1
:1054F000FF009DF80B3076B1520002F07E0202EB05
:10550000D3135A1C9DF80D309B09013B02FA03F39B
:105510002B6020463FE0D90001F01801C2F384025D
:1055200001EB5311531C01FB03332B6033E0214B80
:105530001B782B7000202EE00021492001E0002183
:105540004A20FFF75FFD00287FF45FAF10211AE0CB
:1055500000217A20FFF756FD00287FF456AF291D61
:10556000FF20FFF7ADFC05F8010B8D42F8D1E1E714
:105570000021CD20FFF746FD00287FF446AFFF2035
:10558000FFF79EFC40212846FFF7D0FCB0FA80F0E0
:10559000400900E00420054B4FF000729A6102E0E0
:1055A000002000E0032004B070BD00BF20C009202F
:1055B0001AC0072014C80720054B1B78253BDBB217
:1055C000032B9ABF034A52F823000020704700BF04
:1055D00018C80720D0C402001B4B2DE9F0411D88DC
:1055E0000646B5F5007F0F46144602D12A462146ED
:1055F00013E0B5F5807F09D12A4621463846B047E9
:105600002A4604F5807107F5807016E0B5F5047F31
:1056100005D1510A89024FF4007238460DE0B5F504
:10562000847F0ED1140A61024FF480723846B0476D
:10563000611C4FF480724902B8183346BDE8F0414E
:105640001847BDE8F08100BF16C8072030B52F4CC1
:1056500003462546002958DD07291A782DDDA2606A
:105660005A780839A2609A78A260DA78A2601A792A
:10567000A2605A79A2609A79A26003F10802DB79EC
:10568000A360A3695B07FCD5AB680370AB6843708C
:10569000AB688370AB68C370E368DB06FCD4AB68AF
:1056A000083000F8043CAB6800F8033CAB6800F835
:1056B000023CAB6800F8013C1AE003291ADDA26045
:1056C0005A780439A2609A78A2601A1DDB78A36028
:1056D000E368DB06FCD4AB68043000F8043CAB683C
:1056E00000F8033CAB6800F8023CAB6800F8013CF2
:1056F0001346AFE70133A2600139E268D206FCD459
:10570000AA68013000F8012CA4E730BD0000034076
:1057100007B50B0C8DF805308DF807100B0A042126
:105720008DF804000DEB01008DF80630FFF78EFFB9
:1057300003B05DF804FBFFFFF7B5174606460E4CB5
:1057400040250323E5618DF804300B0C8DF80530FE
:105750008DF807100B0A04210DEB01008DF80630BF
:10576000FFF774FF00223946304603F083FDA56140
:10577000A561A56103B0F0BD00C009200E4B402219
:10578000DA610E4BD7229A601A46D1680B4BC906D4
:10579000FBD49A681A46FF219960D068C006FCD4F1
:1057A000906810F0800FF7D0034B40229A61C0B28E
:1057B0009A619A61704700BF00C009200000034051
:1057C000F7B5FFF7DBFF1F4C002323801E4B1F4E56
:1057D00040271A889B78F7610321054601A8ADF898
:1057E00004208DF80630FFF731FF9DF805209DF865
:1057F00006301F2AB7612146B761B7611CD1A3F1FA
:105800002502032A18D8124A252B137005F001002F
:1058100006D1002814BF4FF480734FF4847305E061
:10582000002814BF4FF400734FF404730B80FFF78C
:10583000C3FE084B400A18600888B0FA80F040099F
:1058400003B0F0BD16C80720C8C4020000C009207C
:1058500018C807201CC80720F8B58B1817460D4A32
:10586000013B12680446934210D84D02FFF786FFB1
:1058700000262D1BBE4204EB050209DA214606482C
:10588000FFF7AAFE04F500740136F3E70120F8BD26
:105890000020F8BD1CC8072039570100F8B58B1847
:1058A00017460C4A013B126893420FD80446002663
:1058B000C0EB4125BE4204EB050209DA2146064849
:1058C000FFF78AFE04F500740136F3E70120F8BD06
:1058D0000020F8BD1CC80720BD59010008B50728E5
:1058E00005D8DFE800F006090E1214141414042081
:1058F00008BDFFF743FF0AE0FFF75EFE400A0860BD
:1059000005E04FF400730B8001E001230B600020E1
:1059100008BDFFFF70B590B003466A466E4600F1C1
:105920004005144618685968083303C4AB42224640
:10593000F7D1084D4024EC6100219B20FFF7E8FEE1
:1059400021463046FFF782FEAC61AC61AC6110B01D
:1059500070BD00BF00C0092070B50646074D402449
:1059600000217720EC61FFF7D3FE21463046FFF798
:105970006DFEAC61AC61AC6170BD00BF00C00920C0
:1059800008B5064B198831F01F0104D0FFF714FE4B
:10599000B0FBF1F008BD084608BD00BF16C80720DF
:1059A000014B1888704700BF16C80720024B1878B3
:1059B000003018BF0120704716C807202DE9F743B3
:1059C0004FF0FF330F46914601938046FFF7D6FE16
:1059D000FFF7ECFF0646B8B1194C4025194BE561BD
:1059E0001B880320B3F5847F0CBF4FF480714FF404
:1059F00000713943FFF78CFE04210DEB0100FFF726
:105A000025FEA561A561A5610D4C40233946822084
:105A1000E361FFF77DFE01224946404603F02AFC80
:105A20003EB1019B02A8013340F8043D0421FFF779
:105A30000DFE4023A361A361A36103B0BDE8F08321
:105A400000C0092016C80720124B37B51B88B3F5D4
:105A5000847F0CBF4FF480714FF400714FF0FF331F
:105A600041EA40210193FFF7A1FF68B10A4C4025AC
:105A70000320E561FFF74CFE04210DEB0100FFF769
:105A8000E5FDA561A561A5610198431C08BF002043
:105A900003B030BD16C8072000C0092037B5084B39
:105AA000084C1868402504210190E5610DEB0100C8
:105AB000FFF7CCFDA561A561A56103B030BD00BFB6
:105AC000CBC4020000C009201FB501A803F0F6FAFC
:105AD0009DF808309DF8092003F01F0302F00F0223
